{
  "contractName": "PKI",
  "abi": [
    {
      "constant": true,
      "inputs": [
        {
          "name": "",
          "type": "uint256"
        }
      ],
      "name": "signings",
      "outputs": [
        {
          "name": "owner",
          "type": "address"
        },
        {
          "name": "certId",
          "type": "uint256"
        },
        {
          "name": "expiry",
          "type": "uint256"
        },
        {
          "name": "sign",
          "type": "string"
        }
      ],
      "payable": false,
      "stateMutability": "view",
      "type": "function"
    },
    {
      "constant": true,
      "inputs": [
        {
          "name": "",
          "type": "uint256"
        }
      ],
      "name": "crl",
      "outputs": [
        {
          "name": "",
          "type": "bool"
        }
      ],
      "payable": false,
      "stateMutability": "view",
      "type": "function"
    },
    {
      "constant": true,
      "inputs": [
        {
          "name": "",
          "type": "uint256"
        }
      ],
      "name": "registry",
      "outputs": [
        {
          "name": "data",
          "type": "string"
        },
        {
          "name": "hash",
          "type": "string"
        }
      ],
      "payable": false,
      "stateMutability": "view",
      "type": "function"
    },
    {
      "constant": true,
      "inputs": [],
      "name": "owner",
      "outputs": [
        {
          "name": "",
          "type": "address"
        }
      ],
      "payable": false,
      "stateMutability": "view",
      "type": "function"
    },
    {
      "inputs": [],
      "payable": false,
      "stateMutability": "nonpayable",
      "type": "constructor"
    },
    {
      "constant": false,
      "inputs": [
        {
          "name": "data",
          "type": "string"
        },
        {
          "name": "hash",
          "type": "string"
        }
      ],
      "name": "append",
      "outputs": [
        {
          "name": "certId",
          "type": "uint256"
        }
      ],
      "payable": false,
      "stateMutability": "nonpayable",
      "type": "function"
    },
    {
      "constant": false,
      "inputs": [
        {
          "name": "certId",
          "type": "uint256"
        },
        {
          "name": "_sign",
          "type": "string"
        },
        {
          "name": "expiry",
          "type": "uint256"
        }
      ],
      "name": "sign",
      "outputs": [
        {
          "name": "signId",
          "type": "uint256"
        }
      ],
      "payable": false,
      "stateMutability": "nonpayable",
      "type": "function"
    },
    {
      "constant": false,
      "inputs": [
        {
          "name": "signId",
          "type": "uint256"
        }
      ],
      "name": "revoke",
      "outputs": [],
      "payable": false,
      "stateMutability": "nonpayable",
      "type": "function"
    },
    {
      "constant": true,
      "inputs": [
        {
          "name": "signId",
          "type": "uint256"
        }
      ],
      "name": "isSignatureValid",
      "outputs": [
        {
          "name": "state",
          "type": "bool"
        }
      ],
      "payable": false,
      "stateMutability": "view",
      "type": "function"
    },
    {
      "constant": true,
      "inputs": [
        {
          "name": "certId",
          "type": "uint256"
        }
      ],
      "name": "isCertificateValid",
      "outputs": [
        {
          "name": "state",
          "type": "bool"
        }
      ],
      "payable": false,
      "stateMutability": "view",
      "type": "function"
    }
  ],
  "bytecode": "0x60806040526000600455600060055534801561001a57600080fd5b50336000806101000a81548173ffffffffffffffffffffffffffffffffffffffff021916908373ffffffffffffffffffffffffffffffffffffffff160217905550610c968061006a6000396000f3fe608060405234801561001057600080fd5b50600436106100935760003560e01c80635893253c116100665780635893253c1461023a578063591c515f1461034d57806359469563146104b35780638da5cb5b14610596578063a5ce413a146105e057610093565b80631acf70f11461009857806320c5429b1461018057806328891c5e146101ae5780632c2c1132146101f4575b600080fd5b6100c4600480360360208110156100ae57600080fd5b8101908080359060200190929190505050610626565b604051808573ffffffffffffffffffffffffffffffffffffffff1673ffffffffffffffffffffffffffffffffffffffff16815260200184815260200183815260200180602001828103825283818151815260200191508051906020019080838360005b83811015610142578082015181840152602081019050610127565b50505050905090810190601f16801561016f5780820380516001836020036101000a031916815260200191505b509550505050505060405180910390f35b6101ac6004803603602081101561019657600080fd5b810190808035906020019092919050505061070e565b005b6101da600480360360208110156101c457600080fd5b8101908080359060200190929190505050610796565b604051808215151515815260200191505060405180910390f35b6102206004803603602081101561020a57600080fd5b81019080803590602001909291905050506107e3565b604051808215151515815260200191505060405180910390f35b6102666004803603602081101561025057600080fd5b8101908080359060200190929190505050610803565b604051808060200180602001838103835285818151815260200191508051906020019080838360005b838110156102aa57808201518184015260208101905061028f565b50505050905090810190601f1680156102d75780820380516001836020036101000a031916815260200191505b50838103825284818151815260200191508051906020019080838360005b838110156103105780820151818401526020810190506102f5565b50505050905090810190601f16801561033d5780820380516001836020036101000a031916815260200191505b5094505050505060405180910390f35b61049d6004803603604081101561036357600080fd5b810190808035906020019064010000000081111561038057600080fd5b82018360208201111561039257600080fd5b803590602001918460018302840111640100000000831117156103b457600080fd5b91908080601f016020809104026020016040519081016040528093929190818152602001838380828437600081840152601f19601f8201169050808301925050505050505091929192908035906020019064010000000081111561041757600080fd5b82018360208201111561042957600080fd5b8035906020019184600183028401116401000000008311171561044b57600080fd5b91908080601f016020809104026020016040519081016040528093929190818152602001838380828437600081840152601f19601f820116905080830192505050505050509192919290505050610957565b6040518082815260200191505060405180910390f35b610580600480360360608110156104c957600080fd5b8101908080359060200190929190803590602001906401000000008111156104f057600080fd5b82018360208201111561050257600080fd5b8035906020019184600183028401116401000000008311171561052457600080fd5b91908080601f016020809104026020016040519081016040528093929190818152602001838380828437600081840152601f19601f820116905080830192505050505050509192919290803590602001909291905050506109d7565b6040518082815260200191505060405180910390f35b61059e610b3f565b604051808273ffffffffffffffffffffffffffffffffffffffff1673ffffffffffffffffffffffffffffffffffffffff16815260200191505060405180910390f35b61060c600480360360208110156105f657600080fd5b8101908080359060200190929190505050610b64565b604051808215151515815260200191505060405180910390f35b60026020528060005260406000206000915090508060000160009054906101000a900473ffffffffffffffffffffffffffffffffffffffff1690806001015490806002015490806003018054600181600116156101000203166002900480601f0160208091040260200160405190810160405280929190818152602001828054600181600116156101000203166002900480156107045780601f106106d957610100808354040283529160200191610704565b820191906000526020600020905b8154815290600101906020018083116106e757829003601f168201915b5050505050905084565b6000809054906101000a900473ffffffffffffffffffffffffffffffffffffffff1673ffffffffffffffffffffffffffffffffffffffff163373ffffffffffffffffffffffffffffffffffffffff161461076757600080fd5b60016003600083815260200190815260200160002060006101000a81548160ff02191690831515021790555050565b60006003600083815260200190815260200160002060009054906101000a900460ff161580156107dc575060026000838152602001908152602001600020600201544211155b9050919050565b60036020528060005260406000206000915054906101000a900460ff1681565b6001602052806000526040600020600091509050806000018054600181600116156101000203166002900480601f0160208091040260200160405190810160405280929190818152602001828054600181600116156101000203166002900480156108af5780601f10610884576101008083540402835291602001916108af565b820191906000526020600020905b81548152906001019060200180831161089257829003601f168201915b505050505090806001018054600181600116156101000203166002900480601f01602080910402602001604051908101604052809291908181526020018280546001816001161561010002031660029004801561094d5780601f106109225761010080835404028352916020019161094d565b820191906000526020600020905b81548152906001019060200180831161093057829003601f168201915b5050505050905082565b6000600460008154809291906001019190505590506040518060400160405280848152602001838152506001600083815260200190815260200160002060008201518160000190805190602001906109b0929190610bc5565b5060208201518160010190805190602001906109cd929190610bc5565b5090505092915050565b60008060009054906101000a900473ffffffffffffffffffffffffffffffffffffffff1673ffffffffffffffffffffffffffffffffffffffff163373ffffffffffffffffffffffffffffffffffffffff1614610a3257600080fd5b6005600081548092919060010191905055905060405180608001604052803373ffffffffffffffffffffffffffffffffffffffff1681526020018581526020018342018152602001848152506002600083815260200190815260200160002060008201518160000160006101000a81548173ffffffffffffffffffffffffffffffffffffffff021916908373ffffffffffffffffffffffffffffffffffffffff16021790555060208201518160010155604082015181600201556060820151816003019080519060200190610b08929190610bc5565b5090505060006003600083815260200190815260200160002060006101000a81548160ff0219169083151502179055509392505050565b6000809054906101000a900473ffffffffffffffffffffffffffffffffffffffff1681565b600080600090505b600554811015610bba578260026000838152602001908152602001600020600101541415610bad57610b9d81610796565b15610bac576001915050610bc0565b5b8080600101915050610b6c565b50600090505b919050565b828054600181600116156101000203166002900490600052602060002090601f016020900481019282601f10610c0657805160ff1916838001178555610c34565b82800160010185558215610c34579182015b82811115610c33578251825591602001919060010190610c18565b5b509050610c419190610c45565b5090565b610c6791905b80821115610c63576000816000905550600101610c4b565b5090565b9056fea165627a7a72305820b96a9ba81b39fdde81551cae97231b07ff33d19ab97c1ecef8876965caacba0a0029",
  "source": "pragma solidity >=0.4.0;\n\n// TODO: 암호화/복호화\n\ncontract PKI {    \n    address public owner;\n    \n    // mapping (uint => Entity) public entities;\n    mapping (uint => Certificate) public registry;\n    mapping (uint => Signature) public signings;\n    mapping (uint => bool) public crl; // 인증서 폐기 목록 (Certificate Revocation Lists)\n    // uint nEntities = 0;\n    uint nCertificates = 0;\n    uint nSignatures = 0;\n    \n    // 엔티티(개체)\n    // struct Entity {\n    //     address identity;\n    //     uint level;\n    // }\n\n    // 인증서\n    struct Certificate {\n        string data;\n        string hash;\n    }\n\n    // 서명\n    struct Signature {\n        address owner;  // Owner of the signature\n        uint certId;  // Id of the cerficate\n        uint expiry;\n        string sign;\n    }\n\n    // Modifiers\n    modifier onlyOwner { require(msg.sender == owner); _; }\n\n    constructor() public {\n        owner = msg.sender;\n    }\n    \n    // Add a trusted entity. Owner of the PKI only\n    // 신뢰가능한 엔티티 추가. PKI 소유자 전용\n    // function setCA(address trustedEntity) public returns (uint entityId) {\n    //     if (msg.sender == owner) { // PKI 소유자 전용\n    //         // 신뢰가능한 언티티 추가.\n    //         entityId = nEntities++;\n    //         entities[entityId] = Entity(trustedEntity, 1);\n    //     } else {\n    //         // 새로 추가하려는 엔티티가 entities 맵핑에 존재하는 경우에만 등록\n    //         bool found = false;\n    //         for (uint i=0; i < nEntities; i++) {\n    //             if (msg.sender == entities[i].identity) {\n    //                 entityId = nEntities++;\n    //                 found = true;\n    //                 entities[entityId] = Entity(trustedEntity, entities[i].level + 1);\n    //             }\n    //         }\n\n    //         // 만약 found가 false 면 즉시 함수 종료후 모든 상태변환을 되돌림.\n    //         require(found);\n    //     }\n    // }\n\n    // A non trusted entity publishes its certificate\n    // 신뢰 할 수 없는 엔티티가 자신의 인증서를 발행\n    function append(string memory data, string memory hash) public returns (uint certId) {\n        certId = nCertificates++;\n        registry[certId] = Certificate(data, hash);\n    }\n\n    // A trusted entity signs a certificate (expiry is time in seconds)\n    // 신뢰가능한 엔티티가 인증서에 서명 (expiry = 초 단위)\n    function sign(uint certId, string memory _sign, uint expiry) public onlyOwner returns (uint signId) {\n        // 서명을 signings 리스트에 추가\n        signId = nSignatures++;\n        signings[signId] = Signature(msg.sender, certId, now + expiry, _sign);\n        // 인증서 폐기 여부를 false 로 설정 (사용가능한 인증서)\n        crl[signId] = false;\n    }\n\n    // A trusted entity revokes a certificate\n    // 신뢰가능한 엔티티가 인증서 취소 (인증서 폐기)\n    function revoke(uint signId) public onlyOwner {\n        crl[signId] = true;\n    }\n\n    // 서명 유효성 체크\n    function isSignatureValid(uint signId) public view returns (bool state) {\n        return !crl[signId] && now <= signings[signId].expiry;\n    }\n\n    // 인증서 유효성 체크\n    function isCertificateValid(uint certId) public view returns (bool state) {\n        for (uint i=0; i < nSignatures; i++) {\n            if (signings[i].certId == certId) {\n                if (isSignatureValid(i)) {\n                    return true; // Else try for another signature\n                }\n            }\n        }\n        return false;\n    }\n\n}\n",
  "sourcePath": "/Users/hansu/Programming/study/EthPKI-react/contracts/PKI.sol",
  "compiler": {
    "name": "solc",
    "version": "0.5.8+commit.23d335f2.Emscripten.clang"
  },
  "schemaVersion": "3.0.11",
  "updatedAt": "2019-10-04T07:49:16.493Z",
  "devdoc": {
    "methods": {}
  },
  "userdoc": {
    "methods": {}
  }
}