{
  "contractName": "PKI",
  "abi": [
    {
      "constant": true,
      "inputs": [
        {
          "name": "",
          "type": "uint256"
        }
      ],
      "name": "signings",
      "outputs": [
        {
          "name": "owner",
          "type": "address"
        },
        {
          "name": "certId",
          "type": "uint256"
        },
        {
          "name": "expiry",
          "type": "uint256"
        },
        {
          "name": "sign",
          "type": "string"
        }
      ],
      "payable": false,
      "stateMutability": "view",
      "type": "function"
    },
    {
      "constant": true,
      "inputs": [
        {
          "name": "",
          "type": "uint256"
        }
      ],
      "name": "crl",
      "outputs": [
        {
          "name": "",
          "type": "bool"
        }
      ],
      "payable": false,
      "stateMutability": "view",
      "type": "function"
    },
    {
      "constant": true,
      "inputs": [
        {
          "name": "",
          "type": "uint256"
        }
      ],
      "name": "registry",
      "outputs": [
        {
          "name": "data",
          "type": "string"
        },
        {
          "name": "hash",
          "type": "string"
        }
      ],
      "payable": false,
      "stateMutability": "view",
      "type": "function"
    },
    {
      "constant": true,
      "inputs": [
        {
          "name": "",
          "type": "uint256"
        }
      ],
      "name": "entities",
      "outputs": [
        {
          "name": "identity",
          "type": "address"
        },
        {
          "name": "level",
          "type": "uint256"
        }
      ],
      "payable": false,
      "stateMutability": "view",
      "type": "function"
    },
    {
      "constant": true,
      "inputs": [],
      "name": "owner",
      "outputs": [
        {
          "name": "",
          "type": "address"
        }
      ],
      "payable": false,
      "stateMutability": "view",
      "type": "function"
    },
    {
      "constant": true,
      "inputs": [
        {
          "name": "",
          "type": "address"
        }
      ],
      "name": "users",
      "outputs": [
        {
          "name": "name",
          "type": "string"
        }
      ],
      "payable": false,
      "stateMutability": "view",
      "type": "function"
    },
    {
      "inputs": [],
      "payable": false,
      "stateMutability": "nonpayable",
      "type": "constructor"
    },
    {
      "constant": false,
      "inputs": [
        {
          "name": "trustedEntity",
          "type": "address"
        }
      ],
      "name": "register",
      "outputs": [
        {
          "name": "entityId",
          "type": "uint256"
        }
      ],
      "payable": false,
      "stateMutability": "nonpayable",
      "type": "function"
    },
    {
      "constant": false,
      "inputs": [
        {
          "name": "data",
          "type": "string"
        },
        {
          "name": "hash",
          "type": "string"
        }
      ],
      "name": "append",
      "outputs": [
        {
          "name": "certId",
          "type": "uint256"
        }
      ],
      "payable": false,
      "stateMutability": "nonpayable",
      "type": "function"
    },
    {
      "constant": false,
      "inputs": [
        {
          "name": "certId",
          "type": "uint256"
        },
        {
          "name": "_sign",
          "type": "string"
        },
        {
          "name": "expiry",
          "type": "uint256"
        }
      ],
      "name": "sign",
      "outputs": [
        {
          "name": "signId",
          "type": "uint256"
        }
      ],
      "payable": false,
      "stateMutability": "nonpayable",
      "type": "function"
    },
    {
      "constant": false,
      "inputs": [
        {
          "name": "signId",
          "type": "uint256"
        }
      ],
      "name": "revoke",
      "outputs": [],
      "payable": false,
      "stateMutability": "nonpayable",
      "type": "function"
    },
    {
      "constant": true,
      "inputs": [
        {
          "name": "signId",
          "type": "uint256"
        }
      ],
      "name": "isSignatureValid",
      "outputs": [
        {
          "name": "state",
          "type": "bool"
        }
      ],
      "payable": false,
      "stateMutability": "view",
      "type": "function"
    },
    {
      "constant": true,
      "inputs": [
        {
          "name": "certId",
          "type": "uint256"
        }
      ],
      "name": "isCertificateValid",
      "outputs": [
        {
          "name": "state",
          "type": "bool"
        }
      ],
      "payable": false,
      "stateMutability": "view",
      "type": "function"
    },
    {
      "constant": false,
      "inputs": [
        {
          "name": "_id",
          "type": "address"
        },
        {
          "name": "name",
          "type": "string"
        }
      ],
      "name": "setUser",
      "outputs": [],
      "payable": false,
      "stateMutability": "nonpayable",
      "type": "function"
    },
    {
      "constant": true,
      "inputs": [
        {
          "name": "_id",
          "type": "address"
        }
      ],
      "name": "getUser",
      "outputs": [
        {
          "name": "name",
          "type": "string"
        }
      ],
      "payable": false,
      "stateMutability": "view",
      "type": "function"
    }
  ],
  "bytecode": "0x608060405260006006556000600755600060085534801561001f57600080fd5b50336000806101000a81548173ffffffffffffffffffffffffffffffffffffffff021916908373ffffffffffffffffffffffffffffffffffffffff16021790555061155d8061006f6000396000f3fe608060405234801561001057600080fd5b50600436106100ea5760003560e01c8063591c515f1161008c5780636f77926b116100665780636f77926b146107955780638da5cb5b14610852578063a5ce413a1461089c578063a87430ba146108e2576100ea565b8063591c515f146104d7578063594695631461063d5780636331883b14610720576100ea565b80632c2c1132116100c85780632c2c11321461024b5780633f1a51b8146102915780634420e4861461036c5780635893253c146103c4576100ea565b80631acf70f1146100ef57806320c5429b146101d757806328891c5e14610205575b600080fd5b61011b6004803603602081101561010557600080fd5b810190808035906020019092919050505061099f565b604051808573ffffffffffffffffffffffffffffffffffffffff1673ffffffffffffffffffffffffffffffffffffffff16815260200184815260200183815260200180602001828103825283818151815260200191508051906020019080838360005b8381101561019957808201518184015260208101905061017e565b50505050905090810190601f1680156101c65780820380516001836020036101000a031916815260200191505b509550505050505060405180910390f35b610203600480360360208110156101ed57600080fd5b8101908080359060200190929190505050610a87565b005b6102316004803603602081101561021b57600080fd5b8101908080359060200190929190505050610b43565b604051808215151515815260200191505060405180910390f35b6102776004803603602081101561026157600080fd5b8101908080359060200190929190505050610b90565b604051808215151515815260200191505060405180910390f35b61036a600480360360408110156102a757600080fd5b81019080803573ffffffffffffffffffffffffffffffffffffffff169060200190929190803590602001906401000000008111156102e457600080fd5b8201836020820111156102f657600080fd5b8035906020019184600183028401116401000000008311171561031857600080fd5b91908080601f016020809104026020016040519081016040528093929190818152602001838380828437600081840152601f19601f820116905080830192505050505050509192919290505050610bb0565b005b6103ae6004803603602081101561038257600080fd5b81019080803573ffffffffffffffffffffffffffffffffffffffff169060200190929190505050610c22565b6040518082815260200191505060405180910390f35b6103f0600480360360208110156103da57600080fd5b8101908080359060200190929190505050610e84565b604051808060200180602001838103835285818151815260200191508051906020019080838360005b83811015610434578082015181840152602081019050610419565b50505050905090810190601f1680156104615780820380516001836020036101000a031916815260200191505b50838103825284818151815260200191508051906020019080838360005b8381101561049a57808201518184015260208101905061047f565b50505050905090810190601f1680156104c75780820380516001836020036101000a031916815260200191505b5094505050505060405180910390f35b610627600480360360408110156104ed57600080fd5b810190808035906020019064010000000081111561050a57600080fd5b82018360208201111561051c57600080fd5b8035906020019184600183028401116401000000008311171561053e57600080fd5b91908080601f016020809104026020016040519081016040528093929190818152602001838380828437600081840152601f19601f820116905080830192505050505050509192919290803590602001906401000000008111156105a157600080fd5b8201836020820111156105b357600080fd5b803590602001918460018302840111640100000000831117156105d557600080fd5b91908080601f016020809104026020016040519081016040528093929190818152602001838380828437600081840152601f19601f820116905080830192505050505050509192919290505050610fd8565b6040518082815260200191505060405180910390f35b61070a6004803603606081101561065357600080fd5b81019080803590602001909291908035906020019064010000000081111561067a57600080fd5b82018360208201111561068c57600080fd5b803590602001918460018302840111640100000000831117156106ae57600080fd5b91908080601f016020809104026020016040519081016040528093929190818152602001838380828437600081840152601f19601f82011690508083019250505050505050919291929080359060200190929190505050611058565b6040518082815260200191505060405180910390f35b61074c6004803603602081101561073657600080fd5b81019080803590602001909291905050506111f4565b604051808373ffffffffffffffffffffffffffffffffffffffff1673ffffffffffffffffffffffffffffffffffffffff1681526020018281526020019250505060405180910390f35b6107d7600480360360208110156107ab57600080fd5b81019080803573ffffffffffffffffffffffffffffffffffffffff169060200190929190505050611238565b6040518080602001828103825283818151815260200191508051906020019080838360005b838110156108175780820151818401526020810190506107fc565b50505050905090810190601f1680156108445780820380516001836020036101000a031916815260200191505b509250505060405180910390f35b61085a61133d565b604051808273ffffffffffffffffffffffffffffffffffffffff1673ffffffffffffffffffffffffffffffffffffffff16815260200191505060405180910390f35b6108c8600480360360208110156108b257600080fd5b8101908080359060200190929190505050611362565b604051808215151515815260200191505060405180910390f35b610924600480360360208110156108f857600080fd5b81019080803573ffffffffffffffffffffffffffffffffffffffff1690602001909291905050506113c3565b6040518080602001828103825283818151815260200191508051906020019080838360005b83811015610964578082015181840152602081019050610949565b50505050905090810190601f1680156109915780820380516001836020036101000a031916815260200191505b509250505060405180910390f35b60046020528060005260406000206000915090508060000160009054906101000a900473ffffffffffffffffffffffffffffffffffffffff1690806001015490806002015490806003018054600181600116156101000203166002900480601f016020809104026020016040519081016040528092919081815260200182805460018160011615610100020316600290048015610a7d5780601f10610a5257610100808354040283529160200191610a7d565b820191906000526020600020905b815481529060010190602001808311610a6057829003601f168201915b5050505050905084565b60008090505b600654811015610b3f573373ffffffffffffffffffffffffffffffffffffffff166001600083815260200190815260200160002060000160009054906101000a900473ffffffffffffffffffffffffffffffffffffffff1673ffffffffffffffffffffffffffffffffffffffff161415610b325760016005600084815260200190815260200160002060006101000a81548160ff021916908315150217905550610b3f565b8080600101915050610a8d565b5050565b60006005600083815260200190815260200160002060009054906101000a900460ff16158015610b89575060046000838152602001908152602001600020600201544211155b9050919050565b60056020528060005260406000206000915054906101000a900460ff1681565b604051806020016040528082815250600260008473ffffffffffffffffffffffffffffffffffffffff1673ffffffffffffffffffffffffffffffffffffffff1681526020019081526020016000206000820151816000019080519060200190610c1a929190611479565b509050505050565b60008060009054906101000a900473ffffffffffffffffffffffffffffffffffffffff1673ffffffffffffffffffffffffffffffffffffffff163373ffffffffffffffffffffffffffffffffffffffff161415610d24576006600081548092919060010191905055905060405180604001604052808373ffffffffffffffffffffffffffffffffffffffff16815260200160018152506001600083815260200190815260200160002060008201518160000160006101000a81548173ffffffffffffffffffffffffffffffffffffffff021916908373ffffffffffffffffffffffffffffffffffffffff16021790555060208201518160010155905050610e7f565b600080905060008090505b600654811015610e72576001600082815260200190815260200160002060000160009054906101000a900473ffffffffffffffffffffffffffffffffffffffff1673ffffffffffffffffffffffffffffffffffffffff163373ffffffffffffffffffffffffffffffffffffffff161415610e6557600660008154809291906001019190505592506001915060405180604001604052808573ffffffffffffffffffffffffffffffffffffffff168152602001600180600085815260200190815260200160002060010154018152506001600085815260200190815260200160002060008201518160000160006101000a81548173ffffffffffffffffffffffffffffffffffffffff021916908373ffffffffffffffffffffffffffffffffffffffff160217905550602082015181600101559050505b8080600101915050610d2f565b5080610e7d57600080fd5b505b919050565b6003602052806000526040600020600091509050806000018054600181600116156101000203166002900480601f016020809104026020016040519081016040528092919081815260200182805460018160011615610100020316600290048015610f305780601f10610f0557610100808354040283529160200191610f30565b820191906000526020600020905b815481529060010190602001808311610f1357829003601f168201915b505050505090806001018054600181600116156101000203166002900480601f016020809104026020016040519081016040528092919081815260200182805460018160011615610100020316600290048015610fce5780601f10610fa357610100808354040283529160200191610fce565b820191906000526020600020905b815481529060010190602001808311610fb157829003601f168201915b5050505050905082565b600060076000815480929190600101919050559050604051806040016040528084815260200183815250600360008381526020019081526020016000206000820151816000019080519060200190611031929190611479565b50602082015181600101908051906020019061104e929190611479565b5090505092915050565b600080600090505b6006548110156111ec573373ffffffffffffffffffffffffffffffffffffffff166001600083815260200190815260200160002060000160009054906101000a900473ffffffffffffffffffffffffffffffffffffffff1673ffffffffffffffffffffffffffffffffffffffff1614156111df576008600081548092919060010191905055915060405180608001604052803373ffffffffffffffffffffffffffffffffffffffff1681526020018681526020018442018152602001858152506004600084815260200190815260200160002060008201518160000160006101000a81548173ffffffffffffffffffffffffffffffffffffffff021916908373ffffffffffffffffffffffffffffffffffffffff160217905550602082015181600101556040820151816002015560608201518160030190805190602001906111aa929190611479565b5090505060006005600084815260200190815260200160002060006101000a81548160ff0219169083151502179055506111ec565b8080600101915050611060565b509392505050565b60016020528060005260406000206000915090508060000160009054906101000a900473ffffffffffffffffffffffffffffffffffffffff16908060010154905082565b60606112426114f9565b600260008473ffffffffffffffffffffffffffffffffffffffff1673ffffffffffffffffffffffffffffffffffffffff168152602001908152602001600020604051806020016040529081600082018054600181600116156101000203166002900480601f0160208091040260200160405190810160405280929190818152602001828054600181600116156101000203166002900480156113255780601f106112fa57610100808354040283529160200191611325565b820191906000526020600020905b81548152906001019060200180831161130857829003601f168201915b50505050508152505090508060000151915050919050565b6000809054906101000a900473ffffffffffffffffffffffffffffffffffffffff1681565b600080600090505b6008548110156113b85782600460008381526020019081526020016000206001015414156113ab5761139b81610b43565b156113aa5760019150506113be565b5b808060010191505061136a565b50600090505b919050565b6002602052806000526040600020600091509050806000018054600181600116156101000203166002900480601f01602080910402602001604051908101604052809291908181526020018280546001816001161561010002031660029004801561146f5780601f106114445761010080835404028352916020019161146f565b820191906000526020600020905b81548152906001019060200180831161145257829003601f168201915b5050505050905081565b828054600181600116156101000203166002900490600052602060002090601f016020900481019282601f106114ba57805160ff19168380011785556114e8565b828001600101855582156114e8579182015b828111156114e75782518255916020019190600101906114cc565b5b5090506114f5919061150c565b5090565b6040518060200160405280606081525090565b61152e91905b8082111561152a576000816000905550600101611512565b5090565b9056fea165627a7a7230582044c0c7cf567e5ed6ff692453cbdcbb7031247c6e733d7f7791763169d421191e0029",
  "source": "pragma solidity >=0.4.0;\n\n// TODO: 암호화/복호화\n\ncontract PKI {\n    \n    address public owner;\n    \n    mapping (uint => Entity) public entities;\n    mapping (address => User) public users;\n    mapping (uint => Certificate) public registry;\n    mapping (uint => Signature) public signings;\n    mapping (uint => bool) public crl; // 인증서 폐기 목록 (Certificate Revocation Lists)\n    uint nEntities = 0;\n    uint nCertificates = 0;\n    uint nSignatures = 0;\n    \n    // 엔티티(개체)\n    struct Entity {\n        address identity;\n        uint level;\n    }\n\n    // 유저정보\n    struct User {\n        string name;\n    }\n\n    // 인증서\n    struct Certificate {\n        string data;\n        string hash;\n    }\n\n    // 서명\n    struct Signature {\n        address owner;  // Owner of the signature\n        uint certId;  // Id of the cerficate\n        uint expiry;\n        string sign;\n    }\n\n    constructor() public {\n        owner = msg.sender;\n    }\n    \n    // Add a trusted entity. Owner of the PKI only\n    // 신뢰가능한 엔티티 추가. PKI 소유자 전용\n    function register(address trustedEntity) public returns (uint entityId) {\n        if (msg.sender == owner) { // PKI 소유자 전용\n            // 신뢰가능한 언티티 추가.\n            entityId = nEntities++;\n            entities[entityId] = Entity(trustedEntity, 1);\n        } else {\n            // 새로 추가하려는 엔티티가 entities 맵핑에 존재하는 경우에만 등록\n            bool found = false;\n            for (uint i=0; i < nEntities; i++) {\n                if (msg.sender == entities[i].identity) {\n                    entityId = nEntities++;\n                    found = true;\n                    entities[entityId] = Entity(trustedEntity, entities[i].level + 1);\n                }\n            }\n\n            // 만약 found가 false 면 즉시 함수 종료후 모든 상태변환을 되돌림.\n            require(found);\n        }\n    }\n\n    // A non trusted entity publishes its certificate\n    // 신뢰 할 수 없는 엔티티가 자신의 인증서를 발행\n    function append(string memory data, string memory hash) public returns (uint certId) {\n        certId = nCertificates++;\n        registry[certId] = Certificate(data, hash);\n    }\n\n    // A trusted entity signs a certificate (expiry is time in seconds)\n    // 신뢰가능한 엔티티가 인증서에 서명 (expiry = 초 단위)\n    function sign(uint certId, string memory _sign, uint expiry) public returns (uint signId) {\n        for (uint i=0; i < nEntities; i++) {\n            if (entities[i].identity == msg.sender) { // msg.sender 가 신뢰가능한 경우\n                // 서명을 signings 리스트에 추가\n                signId = nSignatures++;\n                signings[signId] = Signature(msg.sender, certId, now + expiry, _sign);\n                // 인증서 폐기 여부를 false 로 설정 (사용가능한 인증서)\n                crl[signId] = false;\n                break;\n            }\n        }\n    }\n\n    // A trusted entity revokes a certificate\n    // 신뢰가능한 엔티티가 인증서 취소 (인증서 폐기)\n    function revoke(uint signId) public {\n        for (uint i=0; i < nEntities; i++) {\n            if (entities[i].identity == msg.sender) {\n                crl[signId] = true;\n                break;\n            }\n        }\n    }\n\n    // 서명 유효성 체크\n    function isSignatureValid(uint signId) public view returns (bool state) {\n        return !crl[signId] && now <= signings[signId].expiry;\n    }\n\n    // 인증서 유효성 체크\n    function isCertificateValid(uint certId) public view returns (bool state) {\n        for (uint i=0; i < nSignatures; i++) {\n            if (signings[i].certId == certId) {\n                if (isSignatureValid(i)) {\n                    return true; // Else try for another signature\n                }\n            }\n        }\n        return false;\n    }\n\n    function setUser(address _id, string memory name) public {\n        users[_id] = User(name);\n    }\n\n    function getUser(address _id) public view returns(string memory name) {\n        User memory user = users[_id];\n        return (user.name);\n    }\n\n}\n",
  "sourcePath": "/Users/hansu/Programming/study/EthPKI-react/contracts/PKI.sol",
  "compiler": {
    "name": "solc",
    "version": "0.5.8+commit.23d335f2.Emscripten.clang"
  },
  "schemaVersion": "3.0.11",
  "updatedAt": "2019-10-01T06:44:25.493Z",
  "devdoc": {
    "methods": {}
  },
  "userdoc": {
    "methods": {}
  }
}